:100000000C9434000C9446000C9446000C9446006A
:100010000C9446000C9446000C9446000C94460048
:100020000C9446000C9446000C9446000C94460038
:100030000C9446000C9446000C9446000C94460028
:100040000C9446000C9446000C94CB000C94F900E0
:100050000C9446000C9446000C9446000C94460008
:100060000C9446000C94460011241FBECFEFD8E03C
:10007000DEBFCDBF21E0A0E0B1E001C01D92A534FC
:10008000B207E1F70E946C000C9492010C940000FE
:10009000E4E6F0E080818E7F808380E480937C00C2
:1000A00087E880937A0010927B008FEF80937E0028
:1000B0000895ECE7F0E09081907F892B8083EAE758
:1000C000F0E0808180648083808186FDFDCF809117
:1000D0007800909179000895CF93DF93CDB7DEB784
:1000E00027970FB6F894DEBF0FBECDBF0E94480021
:1000F00087E690E00E942301259A789480E00E9490
:1001000059008C0183E00E9459007C01C8018B5F7B
:1001100091400B9728F4C7018B5F91400B9710F02B
:100120002D9A01C02D9888E50E943C0180E20E9432
:100130003C01B80180E090E02AE0AE014F5F5F4FE4
:100140000E9460010E9451018AE00E943C018DE002
:100150000E943C0189E50E943C0180E20E943C0132
:10016000B70180E090E02AE0AE014F5F5F4F0E9450
:1001700060010E9451018AE00E943C018DE00E94D2
:100180003C012FEF80E792E0215080409040E1F762
:1001900000C00000B3CF1F920F920FB60F92112430
:1001A0002F938F939F93EF93FF938091C0002091A3
:1001B000C6008C71E0910201EF5FEF719091010137
:1001C000E91739F0E0930201F0E0EB5FFE4F208386
:1001D00001C082E090910001892B80930001FF9182
:1001E000EF919F918F912F910F900FBE0F901F90C5
:1001F00018951F920F920FB60F9211248F939F9311
:10020000EF93FF939091040180910301981769F097
:10021000E0910301EF5FEF71E0930301F0E0EB5D2C
:10022000FE4F80818093C60005C0E1ECF0E0808144
:100230008F7D8083FF91EF919F918F910F900FBEE3
:100240000F901F90189510920401109203011092C4
:1002500002011092010199231CF422E02093C000B6
:1002600090789093C5008093C40088E98093C10082
:1002700086E08093C2000895209104012F5F2F71C2
:10028000909103012917E1F3E22FF0E0EB5DFE4FBF
:10029000808320930401E1ECF0E080818062808320
:1002A0000895CF93DF93EC018881882331F0219664
:1002B0000E943C0189918111FBCFDF91CF9108957C
:1002C000BB27FA01A62F6217710581059105330B33
:1002D00030FB66F0AA27660F771F881F991FAA1F99
:1002E000A21710F0A21B63953850A9F7A05DAA339E
:1002F00008F0A95DA19336F7B111B1931082CA013C
:100300000C948201DC01FC01672F71917723E1F7E6
:10031000329704C07C916D9370836291AE17BF07D2
:08032000C8F30895F894FFCF23
:00000001FF
